:1000000099C6189518951895189568C1DBC018956C
:100010001895189518951895189518951895189578
:100020001895189518950D0A4531000D0A4F533152
:100030002E302C20000D0A4532000D0A4F53322E6F
:10004000312C20000D0A4533000D0A4F53332E305A
:100050002C20000D0A443153000D0A44314C000D90
:100060000A5332000D0A4433000D0A5333000D0ABF
:100070004432000D0A4132000D0A4133000D0A4F8F
:100080007265676F6E20536369656E746966696334
:10009000205265636569766572200D0A466F72208D
:1000A00076312E302C2076322E312C2076332E30A5
:1000B0002070726F746F636F6C730D0A4279204108
:1000C0002E596572657A657965762C202863293208
:1000D0003031300D0A000100E000000000E00AB9F4
:1000E0000BB906E800BD08E009B900E000BD08E072
:1000F0000AB908951B2F0A2E602FD901A40FB51F2E
:1001000000E00C9303C000E3400F40832A173B0735
:1001100050F4462F4F7062956F701197FD014A3071
:1001200090F307E3F1CFA02DB12F089505C05D9B9B
:10013000FECF2CB90F5F1F4FF80124912223B9F78E
:1001400008955A924A92AA939A938A932397F80110
:10015000C901A42F03C05D9BFECF0CB905910023FC
:10016000D1F72E01442339F1AA9542E050E09201E3
:10017000FC010191CF01BEDF5D9BFECF00E30CB916
:100180005D9BFECF08E70CB907C05D9BFECF0CB9A5
:1001900001E0400E00E0501EF20100810023A9F7AB
:1001A000AA2321F05D9BFECF0CE20CB95D9BFECF34
:1001B00000E20CB9C9F6239689919991A9914990C9
:1001C000599008958A93FA93EA933A922A921A924E
:1001D0000A927A936A935A934A933A932A931A9378
:1001E0000A938FB700E00093E0000091E300053030
:1001F00079F406E210E09ADF0000E1EEF0E04081E1
:100200004695469546953F969F010BE210E099DF93
:100210000091E700033071F405E310E087DF000090
:10022000E1EEF0E0448142954F703F969F010AE372
:1002300010E087DF0091EB000330B9F404E410E034
:1002400075DF0000E1EEF0E0408546954695469565
:100250003F969F0109E410E074DF5D9BFECF0AE04A
:100260000CB95D9BFECF0DE00CB995980091EF00A5
:10027000013019F400E00093EF00E1EEF0E000E05F
:100280000283008301830685023011F400E00687B3
:1002900000E00683048305830685033011F400E043
:1002A000068700E002870087018706870DBD0CBD29
:1002B0000EB50F7B0EBD00E308BF8FBF09911991EA
:1002C00029913991499159916991799109901990A0
:1002D00029903990E991F991899118954A92BA93A8
:1002E000AA939A938A93FA93EA933A922A921A9249
:1002F0000A927A936A935A934A933A932A931A9357
:100300000A934FB6259786B597B500E010E00DBD6E
:100310000CBD873B0DE0900708F062C0823C0BE00B
:10032000900708F45DC00091EF00002309F4ABC40E
:100330000130F1F50091E300005039F0025020F057
:10034000035018F0005051F09EC41093EF0010932A
:10035000E3001093E1001093E20095C40EB506FD92
:10036000F4CF0091E400013009F5A1EEB0E0409136
:10037000E100042F069506950695A00FB11F1F9664
:10038000477001E0E4D41C91102B1C9301E0009312
:10039000E4000091E100102F13951093E100003864
:1003A00008F471C400E00093E1006DC400006BC468
:1003B0001093EF001093E3001093E1001093E2001C
:1003C0001093E7001093E5001093E6001093EB0004
:1003D0001093E9001093EA0095981093E00053C43D
:1003E00085310BE09007A0F5803209E0900708F412
:1003F00058C10091E300053009F0F7C20EB506FFC1
:1004000020C00091E400002389F6A1EEB0E0409105
:10041000E100042F069506950695A00FB11F1F96C3
:10042000477001E094D400951C9110231C93009117
:10043000E100102F13951093E100003808F423C455
:10044000B1CF0091EF00013011F41093EF007FCF96
:10045000833608E1900708F04BC0823405E190072D
:1004600008F4C3C20091EF00002389F3013009F0C2
:100470009FCF0091E3000250035008F466CF005074
:1004800009F001C40EB506FD1AC00091E400002376
:1004900009F05BCFA1EEB0E04091E100042F06959A
:1004A00006950695A00FB11F1F96477001E04FD427
:1004B0001C91102B1C9301E00093E400B8CF009135
:1004C000E400013009F041CFA1EEB0E04091E1003D
:1004D000042F069506950695A00FB11F1F9647702D
:1004E00001E035D400951C9110231C9300E0E4CF6B
:1004F0008B3003E2900788F58E3400E2900708F411
:1005000074C20091EF00023011F41093EF001093C9
:10051000E7001093E5001093E6000091EF00033030
:1005200011F41093EF001093EB001093E900109377
:10053000EA000091EF00002379F40EB506FF07CF23
:100540000091E300002309F002CF03E00093E300F1
:1005500001E00093EF0097C32BCF873F0CE2900799
:1005600068F582300BE2900748F10091EF0002300D
:1005700011F41093EF001093E7001093E50010932F
:10058000E6000091EF00033011F41093EF00109398
:10059000EB001093E9001093EA000091EF000130A6
:1005A00061F40EB506FDD1CE0091E300033009F0F1
:1005B000CCCE04E00093E30066C3FACE87370AE2AC
:1005C0009007B0F5823808E2900708F40EC2009157
:1005D000EF00023011F41093EF001093E700109336
:1005E000E5001093E6000091EF00033011F4109342
:1005F000EF001093EB001093E9001093EA000091D4
:10060000EF000130A1F40EB506FF9FCE0091E3008C
:10061000043009F09ACE05E00093E3001093E10066
:1006200001E00093E40003E510E080DD2CC3C0CEC0
:100630008B3106E3900708F0D8C18E3503E39007AD
:1006400008F4D3C10091EF00023011F41093EF00D1
:100650001093E7001093E5001093E6000091EF007F
:10066000033011F41093EF001093EB001093E900A6
:100670001093EA000091EF00013091F40EB506FFEF
:1006800064CE0091E300043009F05FCE05E00093F2
:10069000E3001093E1001093E40009E510E0C5CFFA
:1006A00087CE8631900708F00DC18B3806E09007A1
:1006B00008F408C10091EF00013011F41093EF002D
:1006C0001093E3001093E1001093E2000091EF001B
:1006D0000023B1F4E1EEF0E0128710871187048166
:1006E00003950483083108F4CEC20FE510E01EDD47
:1006F00002E00093E70000E00093E50002E029CF6C
:10070000023009F061C00091E700025019F00A952B
:1007100041F0B9C20EB506FD02C09598B4C2959AD3
:10072000B2C20EB506FD2CC00091E8000023F9F41A
:100730002091E50020FB86F4422F4695E0EFF0E0A3
:10074000042F069506950695E00FF11F477001E00E
:10075000FED21081102B108301E00093E800022FDD
:1007600023950F3F09F420E02093E500D8CF1093A4
:10077000EF001093E7001093E5001093E60083C2AA
:100780000091E800013099F72091E50020FB8EF4FC
:10079000422F4695E0EFF0E0042F0695069506956A
:1007A000E00FF11F477001E0D2D2009510811023B5
:1007B000108300E00093E800022F23950F3F09F417
:1007C00020E02093E500A9CF033009F05CC200913E
:1007D000EB00025019F00A95B9F055C20EB506FFAC
:1007E00013C01093E7001093E5001093E600959A6C
:1007F00004E610E09BDC03E00093EB0001E00093D3
:10080000EC0000E00093E9000EB506FD36C0009153
:10081000EC00002319F5A1EEB0E04091E900042FAF
:1008200006950695069510E0A00FB11F1F9647701C
:1008300001E08DD21C91102B1C93959A01E000933E
:10084000EC000091E900102F13951093E900003897
:1008500008F419C200E00093E90015C20091EF000E
:10086000033019F400E00093EF0000E00093EB0088
:100870000093E9000093EA0006C20091EC00013009
:1008800069F7A1EEB0E04091E900042F06950695C6
:10089000069510E0A00FB11F1F96477001E057D2D8
:1008A00000951C9110231C9300E00093EC00959898
:1008B0000091E900102F13951093E900003808F417
:1008C000E2C1C8CF833E04E0900708F08EC08E3EA0
:1008D00002E0900708F489C00091EF000023C9F4FA
:1008E000E1EEF0E0128310831183168314831583E5
:1008F000008503950087003208F4C5C109E610E0C1
:1009000015DC02E00093EB0000E00093E90003E057
:1009100020CE023021F50091E700025019F00A952F
:1009200079F0B1C10EB506FFAEC103E00093E70058
:1009300001E00093E8001093E5000EE610E075CEAC
:100940000EB506FD06C00091E800013009F09BC11C
:10095000EFCE0091E800002309F095C115CF0330D8
:1009600009F091C10091EB00025019F00A9529F0AD
:100970008AC10EB506FFD3CED0CE0EB506FD1BC084
:100980000091EC00013009F07EC1A1EEB0E0409191
:10099000E900042F069506950695A00FB11F1F9636
:1009A000477001E0D4D11C91102B1C93959A01E063
:1009B0000093EC007DCF0091EC00002309F0F6CC11
:1009C000A1EEB0E04091E900042F0695069506954A
:1009D000A00FB11F1F96477001E0B9D100951C917F
:1009E00010231C93959800E0E3CF0091EF000023C3
:1009F00009F4E0CC013009F062C00091E30000503E
:100A000009F4A3CC025028F0035008F49ECC005007
:100A100009F039C11093EF001093E3001093E10047
:100A20001093E2000EB506FF25C05D9BFECF04E4E7
:100A30000CB95D9BFECF0DE20CB9DE0142E050E047
:100A40009E01092F57DB03C05D9BFECF0CB90D91B2
:100A50000023D1F7DE0142E050E09E01082F4ADB7F
:100A600003C05D9BFECF0CB90D910023D1F75D99BA
:100A7000F9C0FDCF5D9BFECF04E40CB95D9BFECFBA
:100A80000BE20CB9DE0142E050E09E01092F32DB9F
:100A900003C05D9BFECF0CB90D910023D1F7DE01A1
:100AA00042E050E09E01082F25DB03C05D9BFECF96
:100AB0000CB90D910023D1F75D99D4C0FDCF023060
:100AC00009F067C00091E700005009F450CE0250D1
:100AD00009F44DCE0A9509F0D6C00091E500003327
:100AE00018F003E710E0A1CD1093EF001093E7009A
:100AF0001093E5001093E6000EB506FF25C05D9B40
:100B0000FECF04E40CB95D9BFECF0DE20CB9DE0113
:100B100042E050E09E01092FEDDA03C05D9BFECF5D
:100B20000CB90D910023D1F7DE0142E050E09E01A7
:100B3000082FE0DA03C05D9BFECF0CB90D910023B6
:100B4000D1F75D998FC0FDCF5D9BFECF04E40CB95A
:100B50005D9BFECF0BE20CB9DE0142E050E09E014E
:100B6000092FC8DA03C05D9BFECF0CB90D9100239D
:100B7000D1F7DE0142E050E09E01082FBBDA03C04E
:100B80005D9BFECF0CB90D910023D1F75D996AC032
:100B9000FDCF033009F077C00091EB00025009F45B
:100BA0006AC00A9509F06FC00EB506FD07C0823E07
:100BB000910720F48D37910708F057C01093EF008C
:100BC0001093EB001093E9001093EA000EB506FFB6
:100BD00025C05D9BFECF04E40CB95D9BFECF0DE20A
:100BE0000CB9DE0142E050E09E01092F83DA03C018
:100BF0005D9BFECF0CB90D910023D1F7DE0142E0E1
:100C000050E09E01082F76DA03C05D9BFECF0CB941
:100C10000D910023D1F75D9925C0FDCF5D9BFECFDF
:100C200004E40CB95D9BFECF0BE20CB9DE0142E09F
:100C300050E09E01092F5EDA03C05D9BFECF0CB928
:100C40000D910023D1F7DE0142E050E09E01082F14
:100C500051DA03C05D9BFECF0CB90D910023D1F793
:100C60005D9BFECF0CE20CB90EC00EB506FD0BC0AD
:100C700008E710E0DACC1093EF001093EB0010932C
:100C8000E9001093EA000EB506FF03C00EB50F7B16
:100C900002C00EB500640EBD25964FBE0991199194
:100CA00029913991499159916991799109901990B6
:100CB00029903990E991F99189919991A991B991E6
:100CC0004990189595988D9A959A0FEF13ED20E31A
:100CD000015010402040E1F700C000009598FED977
:100CE0000DE710E023DA0FE31CE901501040E9F7AB
:100CF00000C00000E1EEF0E000E004870587028319
:100D000000830183068304830583028700870187AC
:100D10000687F89410E41BBD0ABD09B7006309BF3C
:100D200002E80EBD00E308BF78940000FECF00008B
:100D30008895FECF0FED0DBF00E00EBFC0ECD0E0F8
:100D40000BD0002309F018D0BDDFF1DFF0CF4A95BA
:100D500012F0000FE1F7089501E0089520E006D0B9
:100D6000E9F70895259102D0E9F708952D930150F0
:100D70001040202F212B089586ED90E0FC01059175
:100D80001491FC013296A591B491FC013496259101
:100D90003491422F432B19F0F901E4DF01C0DEDF6B
:0C0DA000069610E08C3D910748F3089582
:00000001FF
:00000001FF
