:10000000CBC2189518951895189527C1BFC018959B
:100010001895189518951895189518951895189578
:100020001895189518950D0A4F53312E302C200035
:100030000D0A4F53322E312C20000D0A4F53332E10
:10004000302C20000D0A4F7265676F6E2053636974
:10005000656E746966696320526563656976657269
:10006000200D0A466F722076312E302C2076322EEB
:10007000312C2076332E302070726F746F636F6C6A
:10008000730D0A427920412E596572657A6579654A
:10009000762C20286329323031300D0A000100C04F
:1000A000000000FF00E00AB90BB906E800BD07E652
:1000B00009B900E000BD08E00AB908951B2F0A2E17
:1000C000602FD901A40FB51F00E00C9303C000E31B
:1000D000400F40832A173B0750F4462F4F7062951C
:1000E0006F701197FD014A3090F307E3F1CFA02D17
:1000F000B12F089505C05D9BFECF2CB90F5F1F4F38
:10010000F80124912223B9F708955A924A92AA93AA
:100110009A938A932397F801C901A42F03C05D9B8A
:10012000FECF0CB905910023D1F72E01442339F1FC
:10013000AA9542E050E09201FC010191CF01BEDF9F
:100140005D9BFECF00E30CB95D9BFECF08E70CB9C9
:1001500007C05D9BFECF0CB901E0400E00E0501ED1
:10016000F20100810023A9F7AA2321F05D9BFECFB5
:100170000CE20CB95D9BFECF00E20CB9C9F62396E8
:1001800089919991A9914990599008958A93FA93E8
:10019000EA933A922A921A920A927A936A935A931B
:1001A0004A933A932A931A930A938FB700E00093E5
:1001B000C0000091C700053061F40000E1ECF0E000
:1001C00044814695469546953E969F0106E210E08D
:1001D0009CDF0091CB00033059F40000E1ECF0E02B
:1001E000408542954F703E969F0100E310E08DDF01
:1001F0000091C300033061F40000E1ECF0E04081C5
:100200004695469546953E969F010AE310E07DDFB0
:100210009598E1ECF0E000E0068304830583028713
:10022000008701870283008301830DBD0CBD0EB5DD
:100230000F7B0EBD00E308BF8FBF09911991299173
:100240003991499159916991799109901990299021
:100250003990E991F99189911895BA93AA93FA93F3
:10026000EA935A934A933A932A931A930A935FB75D
:1002700026B537B500E010E00DBD0CBD0EB52B3C2A
:1002800006FD98C008E03007C8F5263D06E03007B7
:10029000A8F1E1ECF0E016831483158302850330A6
:1002A00009F485C00281033029F503810023D9F4C4
:1002B0004081042F069506950695DF01A00FB11F1A
:1002C0001E96477001E075D11C91102B1C9301E024
:1002D00003830081102F13951083003808F467C042
:1002E00000E0008364C00000168314831583128726
:1002F0001087118712831083118359C02F3704E0B0
:10030000300708F042C022353340F8F10091CB00AD
:10031000033009F44CC00091C300002389F4E1ECE0
:10032000F0E01683148315831287108711870081EC
:10033000039500830831D8F102E00283108337C0AF
:10034000023019F4959A000032C0033081F5009113
:10035000C4000130C1F7E1ECF0E04081042F0695C4
:1003600006950695DF01A00FB11F1E96477001E0AC
:1003700020D11C91102B1C9301E003830081102FCE
:1003800013951083003898F0ABCF0091C300033071
:1003900071F0E1ECF0E01683148315831287108767
:1003A000118712831083118395981093C0000EB5A6
:1003B0000064AEC008E0300708F04AC0263D06E001
:1003C000300708F445C0E1ECF0E016831483158390
:1003D0000285033009F49AC00281023011F0033023
:1003E000B1F5128710871187023039F4959A03E02E
:1003F000028301E00383108303C003810130E1F431
:100400004081042F069506950695DF01A00FB11FC8
:100410001E96477001E0CDD000951C9110231C93CF
:1004200000E003830081102F13951083003808F437
:100430006DC000E000836AC000001683148315833A
:100440001287108711871283108311835FC055C0F4
:100450002F3704E0300708F047C02235334008F456
:1004600043C00091CB00033009F450C0023009F4BE
:100470004DC00091C300002389F4E1ECF0E0168345
:1004800014831583128710871187008103950083D9
:100490000831E0F102E00283108338C0023019F421
:1004A0009598000033C0033089F50091C400002303
:1004B000C1F7E1ECF0E04081042F06950695069522
:1004C000DF01A00FB11F1E96477001E072D00095AA
:1004D0001C9110231C9300E003830081102F1395BF
:1004E0001083003898F0A5CF0091C300033071F05D
:1004F000E1ECF0E0168314831583128710871187CF
:1005000012831083118395981093C0000EB50F7B52
:100510000EBD5FBF09911991299139914991599166
:10052000E991F991A991B991189595988D9A959A13
:100530000FEF13ED20E3015010402040E1F700C021
:1005400000009598AFDD04E410E0D4DD0FE31CE972
:1005500001501040E9F700C00000E1ECF0E000E0DD
:100560000487058706830483058302870087018744
:10057000028300830183F89410E41BBD0ABD09B710
:10058000006309BF02E80EBD00E308BF78940000D5
:10059000FECF00008895FECF0FEB0DBF00E00EBF31
:1005A000C0EAD0E00BD0002309F018D0BEDFF1DFA5
:1005B000F0CF4A9512F0000FE1F7089501E0089599
:1005C00020E006D0E9F70895259102D0E9F70895D3
:1005D0002D9301501040202F212B08958DE990E09C
:1005E000FC0105911491FC013296A591B491FC0196
:1005F000349625913491422F432B19F0F901E4DF11
:1006000001C0DEDF069610E0833A910748F30895B3
:00000001FF
